{
  "_format": "hh-sol-artifact-1",
  "contractName": "Counter",
  "sourceName": "contracts/Counter.sol",
  "abi": [
    {
      "inputs": [
        {
          "internalType": "uint256",
          "name": "_count",
          "type": "uint256"
        }
      ],
      "stateMutability": "nonpayable",
      "type": "constructor"
    },
    {
      "anonymous": false,
      "inputs": [
        {
          "indexed": false,
          "internalType": "address",
          "name": "sender",
          "type": "address"
        },
        {
          "indexed": false,
          "internalType": "uint256",
          "name": "value",
          "type": "uint256"
        }
      ],
      "name": "counterIncremented",
      "type": "event"
    },
    {
      "inputs": [],
      "name": "getCount",
      "outputs": [
        {
          "internalType": "uint256",
          "name": "",
          "type": "uint256"
        }
      ],
      "stateMutability": "view",
      "type": "function"
    },
    {
      "inputs": [],
      "name": "increment",
      "outputs": [],
      "stateMutability": "nonpayable",
      "type": "function"
    }
  ],
  "bytecode": "0x608060405234801561001057600080fd5b506040516104d93803806104d983398181016040528101906100329190610054565b806000819055505061009e565b60008151905061004e81610087565b92915050565b60006020828403121561006657600080fd5b60006100748482850161003f565b91505092915050565b6000819050919050565b6100908161007d565b811461009b57600080fd5b50565b61042c806100ad6000396000f3fe608060405234801561001057600080fd5b50600436106100365760003560e01c8063a87d942c1461003b578063d09de08a14610059575b600080fd5b610043610063565b60405161005091906102ba565b60405180910390f35b6100616100ae565b005b60006100a66040518060400160405280601b81526020017f54686520636f756e742076616c7565206f6e20676574436f756e740000000000815250600054610145565b600054905090565b60016000808282546100c091906102f1565b925050819055506101086040518060400160405280601f81526020017f54686520636f756e742076616c756520616674657220696e6372656d656e7400815250600054610145565b7fe0d42edbbc67ee480e945fb9c853f29aead11463b7050189a78d4dde833dccc13360005460405161013b929190610261565b60405180910390a1565b6101dd828260405160240161015b92919061028a565b6040516020818303038152906040527f9710a9d0000000000000000000000000000000000000000000000000000000007bffffffffffffffffffffffffffffffffffffffffffffffffffffffff19166020820180517bffffffffffffffffffffffffffffffffffffffffffffffffffffffff83818316178352505050506101e1565b5050565b60008151905060006a636f6e736f6c652e6c6f679050602083016000808483855afa5050505050565b61021381610347565b82525050565b6000610224826102d5565b61022e81856102e0565b935061023e818560208601610383565b610247816103e5565b840191505092915050565b61025b81610379565b82525050565b6000604082019050610276600083018561020a565b6102836020830184610252565b9392505050565b600060408201905081810360008301526102a48185610219565b90506102b36020830184610252565b9392505050565b60006020820190506102cf6000830184610252565b92915050565b600081519050919050565b600082825260208201905092915050565b60006102fc82610379565b915061030783610379565b9250827fffffffffffffffffffffffffffffffffffffffffffffffffffffffffffffffff0382111561033c5761033b6103b6565b5b828201905092915050565b600061035282610359565b9050919050565b600073ffffffffffffffffffffffffffffffffffffffff82169050919050565b6000819050919050565b60005b838110156103a1578082015181840152602081019050610386565b838111156103b0576000848401525b50505050565b7f4e487b7100000000000000000000000000000000000000000000000000000000600052601160045260246000fd5b6000601f19601f830116905091905056fea2646970667358221220d808e962b078df1f8df18cd895dca1c6388d44a0dcc63db136da10c60d79780164736f6c63430008040033",
  "linkReferences": {},
  "deployedLinkReferences": {}
}