{
  "_format": "hh-sol-artifact-1",
  "contractName": "Counter",
  "sourceName": "contracts/Counter.sol",
  "abi": [
    {
      "inputs": [
        {
          "internalType": "uint256",
          "name": "_count",
          "type": "uint256"
        }
      ],
      "stateMutability": "nonpayable",
      "type": "constructor"
    },
    {
      "inputs": [],
      "name": "getCount",
      "outputs": [
        {
          "internalType": "uint256",
          "name": "",
          "type": "uint256"
        }
      ],
      "stateMutability": "view",
      "type": "function"
    },
    {
      "inputs": [],
      "name": "increment",
      "outputs": [],
      "stateMutability": "nonpayable",
      "type": "function"
    }
  ],
  "bytecode": "0x608060405234801561001057600080fd5b5060405161043438038061043483398181016040528101906100329190610054565b806000819055505061009e565b60008151905061004e81610087565b92915050565b60006020828403121561006657600080fd5b60006100748482850161003f565b91505092915050565b6000819050919050565b6100908161007d565b811461009b57600080fd5b50565b610387806100ad6000396000f3fe608060405234801561001057600080fd5b50600436106100365760003560e01c8063a87d942c1461003b578063d09de08a14610059575b600080fd5b610043610063565b6040516100509190610247565b60405180910390f35b6100616100ae565b005b60006100a66040518060400160405280601b81526020017f54686520636f756e742076616c7565206f6e20676574436f756e74000000000081525060005461010a565b600054905090565b60016000808282546100c0919061027e565b925050819055506101086040518060400160405280601f81526020017f54686520636f756e742076616c756520616674657220696e6372656d656e740081525060005461010a565b565b6101a28282604051602401610120929190610217565b6040516020818303038152906040527f9710a9d0000000000000000000000000000000000000000000000000000000007bffffffffffffffffffffffffffffffffffffffffffffffffffffffff19166020820180517bffffffffffffffffffffffffffffffffffffffffffffffffffffffff83818316178352505050506101a6565b5050565b60008151905060006a636f6e736f6c652e6c6f679050602083016000808483855afa5050505050565b60006101da82610262565b6101e4818561026d565b93506101f48185602086016102de565b6101fd81610340565b840191505092915050565b610211816102d4565b82525050565b6000604082019050818103600083015261023181856101cf565b90506102406020830184610208565b9392505050565b600060208201905061025c6000830184610208565b92915050565b600081519050919050565b600082825260208201905092915050565b6000610289826102d4565b9150610294836102d4565b9250827fffffffffffffffffffffffffffffffffffffffffffffffffffffffffffffffff038211156102c9576102c8610311565b5b828201905092915050565b6000819050919050565b60005b838110156102fc5780820151818401526020810190506102e1565b8381111561030b576000848401525b50505050565b7f4e487b7100000000000000000000000000000000000000000000000000000000600052601160045260246000fd5b6000601f19601f830116905091905056fea26469706673582212206f098a894d31740c54a491001979cd7de6ba60daafc9f9d24f69737e2b804f3b64736f6c63430008040033",
  "linkReferences": {},
  "deployedLinkReferences": {}
}